{
  "_format": "hh-sol-artifact-1",
  "contractName": "Ticket_City",
  "sourceName": "contracts/Ticket_City.sol",
  "abi": [
    {
      "inputs": [],
      "stateMutability": "payable",
      "type": "constructor"
    },
    {
      "inputs": [
        {
          "internalType": "address",
          "name": "target",
          "type": "address"
        }
      ],
      "name": "AddressEmptyCode",
      "type": "error"
    },
    {
      "inputs": [],
      "name": "AddressZeroDetected",
      "type": "error"
    },
    {
      "inputs": [],
      "name": "AlreadyRegistered",
      "type": "error"
    },
    {
      "inputs": [],
      "name": "AlreadyVerified",
      "type": "error"
    },
    {
      "inputs": [],
      "name": "EmptyAttendeesList",
      "type": "error"
    },
    {
      "inputs": [],
      "name": "EmptyTitleOrDescription",
      "type": "error"
    },
    {
      "inputs": [],
      "name": "EventDoesNotExist",
      "type": "error"
    },
    {
      "inputs": [],
      "name": "EventHasEnded",
      "type": "error"
    },
    {
      "inputs": [],
      "name": "EventNotEnded",
      "type": "error"
    },
    {
      "inputs": [],
      "name": "EventNotStarted",
      "type": "error"
    },
    {
      "inputs": [],
      "name": "ExpectedAttendeesIsTooLow",
      "type": "error"
    },
    {
      "inputs": [],
      "name": "FailedCall",
      "type": "error"
    },
    {
      "inputs": [],
      "name": "FreeTicketForFreeEventOnly",
      "type": "error"
    },
    {
      "inputs": [],
      "name": "InvalidDates",
      "type": "error"
    },
    {
      "inputs": [],
      "name": "InvalidTicketFee",
      "type": "error"
    },
    {
      "inputs": [],
      "name": "NoRevenueToRelease",
      "type": "error"
    },
    {
      "inputs": [],
      "name": "NotEventOrganizer",
      "type": "error"
    },
    {
      "inputs": [],
      "name": "NotRegisteredForEvent",
      "type": "error"
    },
    {
      "inputs": [],
      "name": "OnlyOrganiserCanCreateTicket",
      "type": "error"
    },
    {
      "inputs": [],
      "name": "OnlyOwnerCanRelease",
      "type": "error"
    },
    {
      "inputs": [],
      "name": "ReentrancyGuardReentrantCall",
      "type": "error"
    },
    {
      "inputs": [],
      "name": "RegistrationHasClosed",
      "type": "error"
    },
    {
      "inputs": [],
      "name": "RegularTicketMustCostLessThanVipTicket",
      "type": "error"
    },
    {
      "inputs": [],
      "name": "RevenueAlreadyReleased",
      "type": "error"
    },
    {
      "inputs": [],
      "name": "VipFeeTooLow",
      "type": "error"
    },
    {
      "inputs": [],
      "name": "YouCanNotCreateThisTypeOfTicketForThisEvent",
      "type": "error"
    },
    {
      "anonymous": false,
      "inputs": [
        {
          "indexed": true,
          "internalType": "uint256",
          "name": "_eventId",
          "type": "uint256"
        },
        {
          "indexed": true,
          "internalType": "address",
          "name": "_attendee",
          "type": "address"
        },
        {
          "indexed": false,
          "internalType": "uint256",
          "name": "_verificationTime",
          "type": "uint256"
        }
      ],
      "name": "AttendeeVerified",
      "type": "event"
    },
    {
      "anonymous": false,
      "inputs": [
        {
          "indexed": true,
          "internalType": "address",
          "name": "_from",
          "type": "address"
        },
        {
          "indexed": false,
          "internalType": "uint256",
          "name": "_amount",
          "type": "uint256"
        }
      ],
      "name": "EtherReceived",
      "type": "event"
    },
    {
      "anonymous": false,
      "inputs": [
        {
          "indexed": true,
          "internalType": "address",
          "name": "_organiser",
          "type": "address"
        },
        {
          "indexed": true,
          "internalType": "uint256",
          "name": "_eventId",
          "type": "uint256"
        },
        {
          "indexed": false,
          "internalType": "enum Types.TicketType",
          "name": "_ticketType",
          "type": "uint8"
        }
      ],
      "name": "EventOrganized",
      "type": "event"
    },
    {
      "anonymous": false,
      "inputs": [
        {
          "indexed": true,
          "internalType": "uint256",
          "name": "_eventId",
          "type": "uint256"
        },
        {
          "indexed": true,
          "internalType": "address",
          "name": "_organiser",
          "type": "address"
        },
        {
          "indexed": false,
          "internalType": "uint256",
          "name": "_amount",
          "type": "uint256"
        },
        {
          "indexed": false,
          "internalType": "uint256",
          "name": "_attendanceRate",
          "type": "uint256"
        },
        {
          "indexed": false,
          "internalType": "bool",
          "name": "_manuallyReleased",
          "type": "bool"
        }
      ],
      "name": "RevenueReleased",
      "type": "event"
    },
    {
      "anonymous": false,
      "inputs": [
        {
          "indexed": true,
          "internalType": "uint256",
          "name": "_eventId",
          "type": "uint256"
        },
        {
          "indexed": true,
          "internalType": "address",
          "name": "_organiser",
          "type": "address"
        },
        {
          "indexed": false,
          "internalType": "address",
          "name": "_ticketNFTAddr",
          "type": "address"
        },
        {
          "indexed": false,
          "internalType": "uint256",
          "name": "_ticketFee",
          "type": "uint256"
        },
        {
          "indexed": false,
          "internalType": "string",
          "name": "_ticketType",
          "type": "string"
        }
      ],
      "name": "TicketCreated",
      "type": "event"
    },
    {
      "anonymous": false,
      "inputs": [
        {
          "indexed": true,
          "internalType": "uint256",
          "name": "_eventId",
          "type": "uint256"
        },
        {
          "indexed": true,
          "internalType": "address",
          "name": "_buyer",
          "type": "address"
        },
        {
          "indexed": false,
          "internalType": "uint256",
          "name": "_ticketFee",
          "type": "uint256"
        }
      ],
      "name": "TicketPurchased",
      "type": "event"
    },
    {
      "inputs": [],
      "name": "FREE_TICKET_PRICE",
      "outputs": [
        {
          "internalType": "uint256",
          "name": "",
          "type": "uint256"
        }
      ],
      "stateMutability": "view",
      "type": "function"
    },
    {
      "inputs": [],
      "name": "MINIMUM_ATTENDANCE_RATE",
      "outputs": [
        {
          "internalType": "uint256",
          "name": "",
          "type": "uint256"
        }
      ],
      "stateMutability": "view",
      "type": "function"
    },
    {
      "inputs": [
        {
          "internalType": "uint256",
          "name": "_eventId",
          "type": "uint256"
        }
      ],
      "name": "canReleaseRevenue",
      "outputs": [
        {
          "internalType": "bool",
          "name": "canRelease",
          "type": "bool"
        },
        {
          "internalType": "uint256",
          "name": "attendanceRate",
          "type": "uint256"
        },
        {
          "internalType": "uint256",
          "name": "revenue",
          "type": "uint256"
        }
      ],
      "stateMutability": "view",
      "type": "function"
    },
    {
      "inputs": [
        {
          "internalType": "string",
          "name": "_title",
          "type": "string"
        },
        {
          "internalType": "string",
          "name": "_desc",
          "type": "string"
        },
        {
          "internalType": "string",
          "name": "_imageUri",
          "type": "string"
        },
        {
          "internalType": "string",
          "name": "_location",
          "type": "string"
        },
        {
          "internalType": "uint256",
          "name": "_startDate",
          "type": "uint256"
        },
        {
          "internalType": "uint256",
          "name": "_endDate",
          "type": "uint256"
        },
        {
          "internalType": "uint256",
          "name": "_expectedAttendees",
          "type": "uint256"
        },
        {
          "internalType": "enum Types.TicketType",
          "name": "_ticketType",
          "type": "uint8"
        }
      ],
      "name": "createEvent",
      "outputs": [
        {
          "internalType": "uint256",
          "name": "",
          "type": "uint256"
        }
      ],
      "stateMutability": "nonpayable",
      "type": "function"
    },
    {
      "inputs": [
        {
          "internalType": "uint256",
          "name": "_eventId",
          "type": "uint256"
        },
        {
          "internalType": "enum Types.PaidTicketCategory",
          "name": "_category",
          "type": "uint8"
        },
        {
          "internalType": "uint256",
          "name": "_ticketFee",
          "type": "uint256"
        },
        {
          "internalType": "string",
          "name": "_ticketUri",
          "type": "string"
        }
      ],
      "name": "createTicket",
      "outputs": [],
      "stateMutability": "nonpayable",
      "type": "function"
    },
    {
      "inputs": [
        {
          "internalType": "uint256",
          "name": "",
          "type": "uint256"
        }
      ],
      "name": "eventTickets",
      "outputs": [
        {
          "internalType": "bool",
          "name": "hasRegularTicket",
          "type": "bool"
        },
        {
          "internalType": "bool",
          "name": "hasVIPTicket",
          "type": "bool"
        },
        {
          "internalType": "uint256",
          "name": "regularTicketFee",
          "type": "uint256"
        },
        {
          "internalType": "uint256",
          "name": "vipTicketFee",
          "type": "uint256"
        },
        {
          "internalType": "address",
          "name": "regularTicketNFT",
          "type": "address"
        },
        {
          "internalType": "address",
          "name": "vipTicketNFT",
          "type": "address"
        }
      ],
      "stateMutability": "view",
      "type": "function"
    },
    {
      "inputs": [
        {
          "internalType": "uint256",
          "name": "",
          "type": "uint256"
        }
      ],
      "name": "events",
      "outputs": [
        {
          "internalType": "string",
          "name": "title",
          "type": "string"
        },
        {
          "internalType": "string",
          "name": "desc",
          "type": "string"
        },
        {
          "internalType": "string",
          "name": "imageUri",
          "type": "string"
        },
        {
          "internalType": "string",
          "name": "location",
          "type": "string"
        },
        {
          "internalType": "uint256",
          "name": "startDate",
          "type": "uint256"
        },
        {
          "internalType": "uint256",
          "name": "endDate",
          "type": "uint256"
        },
        {
          "internalType": "uint256",
          "name": "expectedAttendees",
          "type": "uint256"
        },
        {
          "internalType": "enum Types.TicketType",
          "name": "ticketType",
          "type": "uint8"
        },
        {
          "internalType": "enum Types.PaidTicketCategory",
          "name": "paidTicketCategory",
          "type": "uint8"
        },
        {
          "internalType": "uint32",
          "name": "userRegCount",
          "type": "uint32"
        },
        {
          "internalType": "uint32",
          "name": "verifiedAttendeesCount",
          "type": "uint32"
        },
        {
          "internalType": "uint256",
          "name": "ticketFee",
          "type": "uint256"
        },
        {
          "internalType": "address",
          "name": "ticketNFTAddr",
          "type": "address"
        },
        {
          "internalType": "address",
          "name": "organiser",
          "type": "address"
        }
      ],
      "stateMutability": "view",
      "type": "function"
    },
    {
      "inputs": [],
      "name": "getAllEvents",
      "outputs": [
        {
          "components": [
            {
              "internalType": "string",
              "name": "title",
              "type": "string"
            },
            {
              "internalType": "string",
              "name": "desc",
              "type": "string"
            },
            {
              "internalType": "string",
              "name": "imageUri",
              "type": "string"
            },
            {
              "internalType": "string",
              "name": "location",
              "type": "string"
            },
            {
              "internalType": "uint256",
              "name": "startDate",
              "type": "uint256"
            },
            {
              "internalType": "uint256",
              "name": "endDate",
              "type": "uint256"
            },
            {
              "internalType": "uint256",
              "name": "expectedAttendees",
              "type": "uint256"
            },
            {
              "internalType": "enum Types.TicketType",
              "name": "ticketType",
              "type": "uint8"
            },
            {
              "internalType": "enum Types.PaidTicketCategory",
              "name": "paidTicketCategory",
              "type": "uint8"
            },
            {
              "internalType": "uint32",
              "name": "userRegCount",
              "type": "uint32"
            },
            {
              "internalType": "uint32",
              "name": "verifiedAttendeesCount",
              "type": "uint32"
            },
            {
              "internalType": "uint256",
              "name": "ticketFee",
              "type": "uint256"
            },
            {
              "internalType": "address",
              "name": "ticketNFTAddr",
              "type": "address"
            },
            {
              "internalType": "address",
              "name": "organiser",
              "type": "address"
            }
          ],
          "internalType": "struct Types.EventDetails[]",
          "name": "",
          "type": "tuple[]"
        }
      ],
      "stateMutability": "view",
      "type": "function"
    },
    {
      "inputs": [],
      "name": "getAllEventsRegisteredFor",
      "outputs": [
        {
          "internalType": "uint256[]",
          "name": "",
          "type": "uint256[]"
        }
      ],
      "stateMutability": "view",
      "type": "function"
    },
    {
      "inputs": [],
      "name": "getAllValidEvents",
      "outputs": [
        {
          "internalType": "uint256[]",
          "name": "",
          "type": "uint256[]"
        }
      ],
      "stateMutability": "view",
      "type": "function"
    },
    {
      "inputs": [
        {
          "internalType": "uint256",
          "name": "_eventId",
          "type": "uint256"
        }
      ],
      "name": "getEvent",
      "outputs": [
        {
          "components": [
            {
              "internalType": "string",
              "name": "title",
              "type": "string"
            },
            {
              "internalType": "string",
              "name": "desc",
              "type": "string"
            },
            {
              "internalType": "string",
              "name": "imageUri",
              "type": "string"
            },
            {
              "internalType": "string",
              "name": "location",
              "type": "string"
            },
            {
              "internalType": "uint256",
              "name": "startDate",
              "type": "uint256"
            },
            {
              "internalType": "uint256",
              "name": "endDate",
              "type": "uint256"
            },
            {
              "internalType": "uint256",
              "name": "expectedAttendees",
              "type": "uint256"
            },
            {
              "internalType": "enum Types.TicketType",
              "name": "ticketType",
              "type": "uint8"
            },
            {
              "internalType": "enum Types.PaidTicketCategory",
              "name": "paidTicketCategory",
              "type": "uint8"
            },
            {
              "internalType": "uint32",
              "name": "userRegCount",
              "type": "uint32"
            },
            {
              "internalType": "uint32",
              "name": "verifiedAttendeesCount",
              "type": "uint32"
            },
            {
              "internalType": "uint256",
              "name": "ticketFee",
              "type": "uint256"
            },
            {
              "internalType": "address",
              "name": "ticketNFTAddr",
              "type": "address"
            },
            {
              "internalType": "address",
              "name": "organiser",
              "type": "address"
            }
          ],
          "internalType": "struct Types.EventDetails",
          "name": "eventDetails",
          "type": "tuple"
        }
      ],
      "stateMutability": "view",
      "type": "function"
    },
    {
      "inputs": [
        {
          "internalType": "uint256[]",
          "name": "_eventIds",
          "type": "uint256[]"
        }
      ],
      "name": "getEventsRequiringManualRelease",
      "outputs": [
        {
          "internalType": "uint256[]",
          "name": "eventIds",
          "type": "uint256[]"
        },
        {
          "internalType": "uint256[]",
          "name": "attendanceRates",
          "type": "uint256[]"
        },
        {
          "internalType": "uint256[]",
          "name": "revenues",
          "type": "uint256[]"
        }
      ],
      "stateMutability": "view",
      "type": "function"
    },
    {
      "inputs": [],
      "name": "getMyEvents",
      "outputs": [
        {
          "internalType": "uint256[]",
          "name": "",
          "type": "uint256[]"
        }
      ],
      "stateMutability": "view",
      "type": "function"
    },
    {
      "inputs": [],
      "name": "getMyTickets",
      "outputs": [
        {
          "internalType": "uint256[]",
          "name": "eventIds",
          "type": "uint256[]"
        },
        {
          "internalType": "string[]",
          "name": "ticketTypes",
          "type": "string[]"
        },
        {
          "internalType": "bool[]",
          "name": "verified",
          "type": "bool[]"
        }
      ],
      "stateMutability": "view",
      "type": "function"
    },
    {
      "inputs": [
        {
          "internalType": "address",
          "name": "",
          "type": "address"
        },
        {
          "internalType": "uint256",
          "name": "",
          "type": "uint256"
        }
      ],
      "name": "hasRegistered",
      "outputs": [
        {
          "internalType": "bool",
          "name": "",
          "type": "bool"
        }
      ],
      "stateMutability": "view",
      "type": "function"
    },
    {
      "inputs": [
        {
          "internalType": "address",
          "name": "",
          "type": "address"
        },
        {
          "internalType": "uint256",
          "name": "",
          "type": "uint256"
        }
      ],
      "name": "isVerified",
      "outputs": [
        {
          "internalType": "bool",
          "name": "",
          "type": "bool"
        }
      ],
      "stateMutability": "view",
      "type": "function"
    },
    {
      "inputs": [
        {
          "internalType": "bytes[]",
          "name": "data",
          "type": "bytes[]"
        }
      ],
      "name": "multicall",
      "outputs": [
        {
          "internalType": "bytes[]",
          "name": "results",
          "type": "bytes[]"
        }
      ],
      "stateMutability": "nonpayable",
      "type": "function"
    },
    {
      "inputs": [],
      "name": "owner",
      "outputs": [
        {
          "internalType": "address payable",
          "name": "",
          "type": "address"
        }
      ],
      "stateMutability": "view",
      "type": "function"
    },
    {
      "inputs": [
        {
          "internalType": "uint256",
          "name": "_eventId",
          "type": "uint256"
        },
        {
          "internalType": "enum Types.PaidTicketCategory",
          "name": "_category",
          "type": "uint8"
        },
        {
          "internalType": "address[]",
          "name": "_recipients",
          "type": "address[]"
        }
      ],
      "name": "purchaseMultipleTickets",
      "outputs": [],
      "stateMutability": "payable",
      "type": "function"
    },
    {
      "inputs": [
        {
          "internalType": "uint256",
          "name": "_eventId",
          "type": "uint256"
        },
        {
          "internalType": "enum Types.PaidTicketCategory",
          "name": "_category",
          "type": "uint8"
        }
      ],
      "name": "purchaseTicket",
      "outputs": [],
      "stateMutability": "payable",
      "type": "function"
    },
    {
      "inputs": [
        {
          "internalType": "uint256",
          "name": "_eventId",
          "type": "uint256"
        }
      ],
      "name": "releaseRevenue",
      "outputs": [],
      "stateMutability": "nonpayable",
      "type": "function"
    },
    {
      "inputs": [],
      "name": "totalEventOrganised",
      "outputs": [
        {
          "internalType": "uint256",
          "name": "",
          "type": "uint256"
        }
      ],
      "stateMutability": "view",
      "type": "function"
    },
    {
      "inputs": [],
      "name": "totalPurchasedTicket",
      "outputs": [
        {
          "internalType": "uint256",
          "name": "",
          "type": "uint256"
        }
      ],
      "stateMutability": "view",
      "type": "function"
    },
    {
      "inputs": [],
      "name": "totalTicketCreated",
      "outputs": [
        {
          "internalType": "uint256",
          "name": "",
          "type": "uint256"
        }
      ],
      "stateMutability": "view",
      "type": "function"
    },
    {
      "inputs": [
        {
          "internalType": "uint256",
          "name": "_eventId",
          "type": "uint256"
        }
      ],
      "name": "verifyAttendance",
      "outputs": [],
      "stateMutability": "nonpayable",
      "type": "function"
    },
    {
      "inputs": [
        {
          "internalType": "uint256",
          "name": "_eventId",
          "type": "uint256"
        },
        {
          "internalType": "address[]",
          "name": "_attendees",
          "type": "address[]"
        }
      ],
      "name": "verifyGroupAttendance",
      "outputs": [],
      "stateMutability": "nonpayable",
      "type": "function"
    },
    {
      "stateMutability": "payable",
      "type": "receive"
    }
  ],
  "bytecode": "0x608060408190526001600081905580546001600160a01b03191633179055614f96908161002a8239f3fe60806040526004361015610047575b361561001957600080fd5b6040513481527f1e57e3bb474320be3d2c77138f75b7c3941292d647f5f9634e33a8e94e0e069b60203392a2005b60003560e01c80630b7914301461292b5780631a209776146128eb5780631ff1ebe6146126ad578063297212ff146125cc5780633548124b146124ed5780634894fb81146123125780634d29e712146122c35780635c41c14114611f8b5780635e1d981614611f585780636425140e14611b565780636d1884e014611ab05780637115c24414611a705780637442ac1d146117405780638541dd471461172257806389a46c92146116a75780638da5cb5b1461167e57806392144c6d14611662578063ac9650d8146114c4578063b188c26b14611266578063b634a4df14610f13578063c27a500d14610e29578063c45c8eb714610e0b578063c6fda258146105dd578063d3d23c68146105c1578063e1d10d851461018d5763f9a76a960361000e5734610188576000366003190112610188576020600354604051908152f35b600080fd5b346101885760003660031901126101885760006001600254905b8181111561057b57506101b982612e6a565b916101c381612e53565b906101d16040519283612ac5565b8082526101dd81612e53565b916101f06020820193601f1901846135d9565b6102126101fc83612e53565b9261020a6040519485612ac5565b808452612e53565b602083019490601f190136863760009060015b818111156102ea576102498888888888604051958695606087526060870190612c12565b90858203602087015251808252602082019160208260051b82010194926000915b8383106102b55750505050506020908483036040860152519182815201919060005b81811061029a575050500390f35b8251151584528594506020938401939092019160010161028c565b91939697509193946020806102d6600193601f198682030187528a51612bad565b98019301930190928897969594929361026a565b33600052600760205260406000208160005260205260ff6040600020541661031b575b61031690612e44565b610225565b9182610327828a612e9c565b5233600052600a60205260406000208360005260205260ff604060002054166103508287612e9c565b9015159052826000526009602052604060002083600052600660205260ff600760406000200154166002811015610565576103b857506103b061031691610395612ec6565b61039f8288612e9c565b526103aa8187612e9c565b50612e44565b92905061030d565b805460ff8160081c168061054f575b6104c2575b60ff16806104ac575b61040e575b506103b06103169160406103f081519182612ac5565b60078152662aa725a727aba760c91b602082015261039f8288612e9c565b600301546040516370a0823160e01b81523360048201529190602090839060249082906001600160a01b03165afa80600091610472575b6103169350610456575b50906103da565b610460578961044f565b61046c90610395612f09565b92612e44565b9192906020823d82116104a4575b8161048d60209383612ac5565b810103126104a15750516103169291610445565b80fd5b3d9150610480565b5060038101546001600160a01b031615156103d5565b6024602060018060a01b03600485015416604051928380926370a0823160e01b82523360048301525afa6000918161051c575b50610501575b506103cc565b61050b578a6104fb565b505061046c61031691610395612ee8565b90916020823d8211610547575b8161053660209383612ac5565b810103126104a1575051908c6104f5565b3d9150610529565b5060048201546001600160a01b031615156103c7565b634e487b7160e01b600052602160045260246000fd5b33600052600760205260406000208160005260205260ff604060002054166105ac575b6105a790612e44565b6101a7565b916105b96105a791612e44565b92905061059e565b34610188576000366003190112610188576020604051603c8152f35b3461018857610100366003190112610188576004356001600160401b0381116101885761060e903690600401612c61565b6024356001600160401b0381116101885761062d903690600401612c61565b906044356001600160401b0381116101885761064d903690600401612c61565b906064356001600160401b0381116101885761066d903690600401612c61565b926084359360a4359460c4359460e435966002881015610188573315610dfa578551158015610df1575b610de057808310801590610dd7575b610dc6578615610db5576002549660018801809811610d9f57876002558760005260066020526040600020968051906001600160401b038211610c54576106f7826106f18b54612a6f565b8b6135f6565b602090601f8311600114610d3857610728929160009183610be2575b50508160011b916000199060031b1c19161790565b87555b855160018801966001600160401b038211610c54576107548261074e8a54612a6f565b8a6135f6565b602090601f8311600114610cd157610784929160009183610be25750508160011b916000199060031b1c19161790565b86555b825160028801936001600160401b038211610c54576107b0826107aa8754612a6f565b876135f6565b602090601f8311600114610c6a576107e0929160009183610be25750508160011b916000199060031b1c19161790565b83555b845160038801956001600160401b038211610c545761080c826108068954612a6f565b896135f6565b602090601f8311600114610bed5761083c929160009183610be25750508160011b916000199060031b1c19161790565b85555b60048701938455600587019182556006870190815560078701916108638a84613648565b825469ffffffffffffffff00001916835560006008890181815560098a0180546001600160a01b0319168155979096919560018d03610bd457855461ff00191686555b600a8b0180546001600160a01b03191633178155600554909a9068010000000000000000811015610bc0576001810180600555811015610bac57600b9060058a52029b8c7f036b6384b5eca791c62761152d0c79bb0604c104a5fb6f4eb0703f3154bb3db001818103610954575b8f8f806020926109276040518092612bd2565b7f75c9af02656bcf2a3bae3000e89db8f4b496591ab35d8ca6c6be07deb4795c1c843392a3604051908152f35b6109ba927f036b6384b5eca791c62761152d0c79bb0604c104a5fb6f4eb0703f3154bb3db18f61098c6109e298979561099295613660565b01613660565b7f036b6384b5eca791c62761152d0c79bb0604c104a5fb6f4eb0703f3154bb3db28d01613660565b7f036b6384b5eca791c62761152d0c79bb0604c104a5fb6f4eb0703f3154bb3db38b01613660565b547f036b6384b5eca791c62761152d0c79bb0604c104a5fb6f4eb0703f3154bb3db4890155547f036b6384b5eca791c62761152d0c79bb0604c104a5fb6f4eb0703f3154bb3db5880155547f036b6384b5eca791c62761152d0c79bb0604c104a5fb6f4eb0703f3154bb3db68701557f036b6384b5eca791c62761152d0c79bb0604c104a5fb6f4eb0703f3154bb3db7860191610a8360ff83541684613648565b815490600360ff8360081c161015610b985750825461ff009190911661ff0019821681178455825465ffffffff00001665ffffffffff00198316821781178555925463ffffffff60301b1669ffffffffffffffffff0019909216179091171790556020958594909390927f036b6384b5eca791c62761152d0c79bb0604c104a5fb6f4eb0703f3154bb3dba92547f036b6384b5eca791c62761152d0c79bb0604c104a5fb6f4eb0703f3154bb3db8850155547f036b6384b5eca791c62761152d0c79bb0604c104a5fb6f4eb0703f3154bb3db9840180546001600160a01b039283166001600160a01b031991821617909155915492909301805492909316911617905592848080808080808080808080610914565b634e487b7160e01b81526021600452602490fd5b634e487b7160e01b89526032600452602489fd5b634e487b7160e01b89526041600452602489fd5b855461ff00191686556108a6565b015190508c80610713565b90601f1983169188600052816000209260005b818110610c3c5750908460019594939210610c23575b505050811b01855561083f565b015160001960f88460031b161c191690558b8080610c16565b92936020600181928786015181550195019301610c00565b634e487b7160e01b600052604160045260246000fd5b90601f1983169186600052816000209260005b818110610cb95750908460019594939210610ca0575b505050811b0183556107e3565b015160001960f88460031b161c191690558b8080610c93565b92936020600181928786015181550195019301610c7d565b90601f1983169189600052816000209260005b818110610d205750908460019594939210610d07575b505050811b018655610787565b015160001960f88460031b161c191690558b8080610cfa565b92936020600181928786015181550195019301610ce4565b90601f198316918a600052816000209260005b818110610d875750908460019594939210610d6e575b505050811b01875561072b565b015160001960f88460031b161c191690558b8080610d61565b92936020600181928786015181550195019301610d4b565b634e487b7160e01b600052601160045260246000fd5b636cb4e35360e11b60005260046000fd5b63364dd21b60e21b60005260046000fd5b504283106106a6565b631f31c1ef60e31b60005260046000fd5b50845115610697565b63287170f960e01b60005260046000fd5b34610188576000366003190112610188576020600254604051908152f35b3461018857600036600319011261018857600554610e4681612e53565b90610e546040519283612ac5565b80825260208201908160056000527f036b6384b5eca791c62761152d0c79bb0604c104a5fb6f4eb0703f3154bb3db06000915b838310610ef557848660405191829160208301906020845251809152604083019060408160051b85010192916000905b828210610ec657505050500390f35b91936001919395506020610ee58192603f198a82030186528851612cd8565b9601920192018594939192610eb7565b600b6020600192610f05856134f0565b815201920192019190610e87565b346101885760203660031901126101885760043580600052600660205260406000208115801561125b575b61124a57600481015442106112395733600052600760205260406000208260005260205260ff60406000205416156112285733600052600a60205260406000208260005260205260ff60406000205416611217578160005260096020526040600020906007600091019160ff835416600281101561120357156111fa575b805460ff8116806111e4575b611159575b8215908161114b575b5080611135575b6110af575b5015611072576110439033600052600a6020526040600020836000526020526040600020600160ff1982541617905561102463ffffffff825460301c1661343b565b63ffffffff60301b82549160301b169063ffffffff60301b1916179055565b604051904282527fd48b1d6a7989d9f5bfd476943b90d8bd028228d2a73146b470e4a3d1a4dd5dae60203393a3005b60405162461bcd60e51b8152602060048201526015602482015274139bc81d985b1a59081d1a58dad95d08199bdd5b99605a1b6044820152606490fd5b6004908101546040516370a0823160e01b81523392810192909252602090829060249082906001600160a01b03165afa60009181611101575b5015610fe2576110f9575b83610fe2565b5060016110f3565b9091506020813d60201161112d575b8161111d60209383612ac5565b81010312610188575190856110e8565b3d9150611110565b5060048101546001600160a01b03161515610fdd565b60ff915060081c1685610fd6565b60038201546040516370a0823160e01b815233600482015290602090829060249082906001600160a01b03165afa600091816111b0575b5061119c575b50610fcd565b6111a7575b85611196565b600192506111a1565b9091506020813d6020116111dc575b816111cc60209383612ac5565b8101031261018857519087611190565b3d91506111bf565b5060038201546001600160a01b03161515610fc8565b60019150610fbc565b634e487b7160e01b83526021600452602483fd5b630231faf760e31b60005260046000fd5b631f84fae960e01b60005260046000fd5b63fc85733f60e01b60005260046000fd5b634833ae7360e11b60005260046000fd5b506002548211610f3e565b34610188576020366003190112610188576004356001600160401b03811161018857611296903690600401612ca8565b906000805b8381106113fb57506112ac81612e6a565b916112bf6112b983612e6a565b92612e6a565b93600090815b81811061130c576112ec86611308896112fa89604051958695606087526060870190612c12565b908582036020870152612c12565b908382036040850152612c12565b0390f35b611317818386613417565b3580600052600660205260406000209060058201544211806113e2575b611343575b50506001016112c5565b60018060a01b03600a8301541660005260086020526040600020816000526020526040600020549182611377575b50611339565b61139e600763ffffffff92015482611393818360301c16612dcb565b9160101c1690612de6565b1690603c821015611371579185916113d9936113bd600196988c612e9c565b526113c8838a612e9c565b526113d3828b612e9c565b52612e44565b92908880611371565b5080600052600b60205260ff6040600020541615611334565b611406818585613417565b358060005260066020526040600020906005820154421190816114a9575b81611478575b50611439575b5060010161129b565b63ffffffff6114576007603c93015482611393818360301c16612dcb565b1610611464575b84611430565b90611470600191612e44565b91905061145e565b905060018060a01b03600a83015416600052600860205260406000209060005260205260406000205415158661142a565b809150600052600b60205260ff604060002054161590611424565b34610188576020366003190112610188576004356001600160401b038111610188576114f4903690600401612ca8565b60206040516115038282612ac5565b6000815281810190601f19830136833761151c84612e53565b9261152a6040519485612ac5565b84845261153685612e53565b61154782860191601f1901826135d9565b36879003601e19019060005b878110156116065760008160051b8a013584811215611602578a018035906001600160401b0382116115fe5786019080360382136115fe5791806115e2926115be6115ce600197968b8d8f60405195848795858701998a37850191848301938a855251938491612b8a565b010103601f198101835282612ac5565b5190305af46115db612e14565b9030613800565b6115ec828a612e9c565b526115f78189612e9c565b5001611553565b8280fd5b5080fd5b604080518581528851818701819052600092600582901b83018101918691899085015b8287106116365785850386f35b909192938280611652600193603f198a82030186528851612bad565b9601920196019592919092611629565b3461018857600036600319011261018857602060405160008152f35b34610188576000366003190112610188576001546040516001600160a01b039091168152602090f35b3461018857602036600319011261018857600435600052600960205260c06040600020805490600181015490600281015460018060a01b0360038301541691600460018060a01b03910154169260ff604051958181161515875260081c161515602086015260408501526060840152608083015260a0820152f35b34610188576000366003190112610188576020600454604051908152f35b34610188576040366003190112610188576004356024356001600160401b03811161018857611773903690600401612ca8565b6000838152600660205260409020919280158015611a65575b61124a5760048301544210611239578115611a5457600081815260096020526040812094929360070192905b8481106117c157005b6001600160a01b036117dc6117d7838886613417565b613427565b169081600052600a60205260406000208460005260205260ff604060002054168015611a2f575b611a2657600091875460ff811680611a10575b611982575b83159081611974575b508061195e575b6118cd575b600192156118c75780600052600a60205260406000208560005260205260406000208360ff1982541617905561189561187263ffffffff885460301c1661343b565b875469ffffffff000000000000191660309190911b63ffffffff60301b16178755565b847fd48b1d6a7989d9f5bfd476943b90d8bd028228d2a73146b470e4a3d1a4dd5dae6020604051428152a35b016117b8565b506118c1565b602492602060018060a01b0360048b015416604051958680926370a0823160e01b82528660048301525afa80600091611924575b60019550611912575b509250611830565b61191d575b8961190a565b5082611917565b91929394906020823d8211611956575b8161194160209383612ac5565b810103126104a1575051600194939291611901565b3d9150611934565b5060048801546001600160a01b0316151561182b565b60ff915060081c1689611824565b60038901546040516370a0823160e01b81526004810184905290602090829060249082906001600160a01b03165afa8591816119d9575b506119c5575b5061181b565b6119d0575b896119bf565b600193506119ca565b9091506020813d8211611a08575b816119f460209383612ac5565b81010312611a045751908b6119b9565b8580fd5b3d91506119e7565b5060038901546001600160a01b03161515611816565b600191506118c1565b5081600052600760205260406000208460005260205260ff6040600020541615611803565b63742dae3d60e01b60005260046000fd5b50600254811161178c565b3461018857611a7e36612bec565b9060018060a01b03166000526007602052604060002090600052602052602060ff604060002054166040519015158152f35b346101885760203660031901126101885760006101a0604051611ad281612aa9565b6060815260606020820152606060408201526060808201528260808201528260a08201528260c08201528260e0820152826101008201528261012082015282610140820152826101608201528261018082015201526004356000526006602052611308611b4260406000206134f0565b604051918291602083526020830190612cd8565b60403660031901126101885760043560243590600382101591826101885781600052600660205260406000209033600052600760205260406000208360005260205260ff60406000205416611f475760058201544211611f365760078201938454600684015463ffffffff8260101c161015611f255760008581526009602052604081209160ff166002811015611f1157611d4957505061056557611d38576009810154600093906001600160a01b03165b6001600160a01b031690611c1d8215156133cb565b813b1561018857600080926024604051809581936340d097c360e01b83523360048401525af1918215611d2c57611c8492611d1b575b50611c6763ffffffff825460101c1661343b565b65ffffffff000082549160101b169065ffffffff00001916179055565b3360005260076020526040600020826000526020526040600020600160ff19825416179055600a60018060a01b039101541660005260086020526040600020816000526020526040600020611cda3482546133be565b905560045460018101809111610d9f576004556040519182527fdbaaf4c87ce30816c961a81d110622a3227ede77953d4383d514ff88ab2e0fd360203393a3005b6000611d2691612ac5565b85611c53565b6040513d6000823e3d90fd5b631e23f6d960e21b60005260046000fd5b90959290915060018103611e5657505060ff84541615611e11576003840154600190940154936001600160a01b03165b843403611dcc57600080808034305af1611d91612e14565b50611c085760405162461bcd60e51b815260206004820152600e60248201526d14185e5b595b9d0819985a5b195960921b6044820152606490fd5b60405162461bcd60e51b815260206004820152601860248201527f496e636f7272656374207061796d656e7420616d6f756e7400000000000000006044820152606490fd5b60405162461bcd60e51b815260206004820152601d60248201527f526567756c6172207469636b657473206e6f7420617661696c61626c650000006044820152606490fd5b600214159050611ecc5760ff845460081c1615611e87576004840154600290940154936001600160a01b0316611d79565b60405162461bcd60e51b815260206004820152601960248201527f564950207469636b657473206e6f7420617661696c61626c65000000000000006044820152606490fd5b60405162461bcd60e51b815260206004820152601760248201527f496e76616c6964207469636b65742063617465676f72790000000000000000006044820152606490fd5b634e487b7160e01b82526021600452602482fd5b6378d6f61360e01b60005260046000fd5b63e34e6c8360e01b60005260046000fd5b630ea075bf60e21b60005260046000fd5b34610188576020366003190112610188576060611f76600435613453565b90604051921515835260208301526040820152f35b606036600319011261018857600435602435600381101580610188576044356001600160401b03811161018857611fc6903690600401612ca8565b909184600052600660205260406000209360058501544211611f3657821561228657600785019182546120028563ffffffff8360101c166133be565b600688015410611f255760008881526009602052604081209160ff166002811015611f11576121ca57505061056557611d38576009840154600093906001600160a01b03165b6001600160a01b03169061205d8215156133cb565b60005b8481106120a55787878761207057005b600a60018060a01b0391015416600052600860205260406000209060005260205260406000206120a13482546133be565b9055005b6001600160a01b036120bb6117d7838886613417565b169081600052600760205260406000208960005260205260ff604060002054166121c157833b15610188576040516340d097c360e01b81526004810183905260008160248183895af18015611d2c576121b0575b508160005260076020526040600020896000526020526040600020600160ff1982541617905561216961214b63ffffffff875460101c1661343b565b865465ffffffff0000191660109190911b65ffffffff000016178655565b6004549160018301809311610d9f57600192600455897fdbaaf4c87ce30816c961a81d110622a3227ede77953d4383d514ff88ab2e0fd360206040518b8152a35b01612060565b60006121bb91612ac5565b8961210f565b600191506121aa565b9095929091506001810361225557505060ff84541615611e11576003840154600190940154936001600160a01b03165b838502858104851486151715610d9f5734146120485760405162461bcd60e51b815260206004820152601e60248201527f496e636f727265637420746f74616c207061796d656e7420616d6f756e7400006044820152606490fd5b600214159050611ecc5760ff845460081c1615611e87576004840154600290940154936001600160a01b03166121fa565b60405162461bcd60e51b8152602060048201526015602482015274115b5c1d1e481c9958da5c1a595b9d1cc81b1a5cdd605a1b6044820152606490fd5b3461018857608036600319011261018857602435600381101561018857606435906001600160401b03821161018857612303612310923690600401612c61565b9060443590600435612f2e565b005b3461018857600036600319011261018857600254600060015b82811115612434575061233d90612e6a565b60009160015b81811115612361576040516020808252819061130890820186612c12565b600081815260066020908152604080832060099092528220600782015460ff16600281101561242057158061240a575b156123e05750600191505b816123d1575b506123b6575b6123b190612e44565b612343565b926123c981856113d36123b19487612e9c565b9390506123a8565b600591500154421115856123a2565b5460ff81169081156123fc575b501561239c576001915061239c565b60ff915060081c16876123ed565b5060098201546001600160a01b03161515612391565b634e487b7160e01b84526021600452602484fd5b600081815260066020908152604080832060099092528220600782015460ff1660028110156124205715806124d7575b156124ad5750600191505b8161249e575b50612489575b61248490612e44565b61232b565b9061249661248491612e44565b91905061247b565b60059150015442111584612475565b5460ff81169081156124c9575b501561246f576001915061246f565b60ff915060081c16866124ba565b5060098201546001600160a01b03161515612464565b3461018857600036600319011261018857600254600060015b82811115612587575061251890612e6a565b90600060015b8281111561253c576040516020808252819061130890820187612c12565b6000818152600660205260409020600a01546001600160a01b0316331461256c575b61256790612e44565b61251e565b9061257f81836113d36125679488612e9c565b91905061255e565b6000818152600660205260409020600a01546001600160a01b031633146125b7575b6125b290612e44565b612506565b906125c46125b291612e44565b9190506125a9565b3461018857600036600319011261018857600254600060015b8281111561266757506125f790612e6a565b90600060015b8281111561261b576040516020808252819061130890820187612c12565b33600052600760205260406000208160005260205260ff6040600020541661264c575b61264790612e44565b6125fd565b9061265f81836113d36126479488612e9c565b91905061263e565b33600052600760205260406000208160005260205260ff60406000205416612698575b61269390612e44565b6125e5565b906126a561269391612e44565b91905061268a565b34610188576020366003190112610188576004356002600054146128da576002600055806000526006602052604060002090801580156128cf575b61124a5760058201544211156128be5780600052600b60205260ff604060002054166128ad57600a82019160018060a01b038354169283600052600860205260406000208360005260205260406000205491821561289c5761275c600763ffffffff92015482611393818360301c16612dcb565b1693603c85101561288557506001546001600160a01b03163303612874575b82600052600b6020526040600020600160ff1982541617905560018060a01b0381541660005260086020526040600020836000526020526000604081205560008080808560018060a01b038654165af16127d3612e14565b501561282f577f8a9d0fa407b1d85a44ecc826645785e396dd8ba15a19f78d55e8b1d2d22415229160609160018060a01b039054169460018060a01b036001541633149060405192835260208301526040820152a36001600055005b60405162461bcd60e51b815260206004820152601760248201527f526576656e7565207472616e73666572206661696c65640000000000000000006044820152606490fd5b637527ebc960e11b60005260046000fd5b331461277b57630ed9459160e31b60005260046000fd5b636f54e5d960e01b60005260046000fd5b632b47441960e01b60005260046000fd5b63fb141a0d60e01b60005260046000fd5b5060025481116126e8565b633ee5aeb560e01b60005260046000fd5b34610188576128f936612bec565b9060018060a01b0316600052600a602052604060002090600052602052602060ff604060002054166040519015158152f35b34610188576020366003190112610188576004356000526006602052604060002061295581612ae6565b61296160018301612ae6565b9161296e60028201612ae6565b61297a60038301612ae6565b9160048101549260058201546006830154600784015491600885015493600160a01b6001900360098701541695600160a01b6001900390600a015416966040519a8b9a6101c08c526101c08c016129d091612bad565b8b810360208d01526129e191612bad565b8a810360408c01526129f291612bad565b89810360608b0152612a0391612bad565b96608089015260a088015260c087015260e0860160ff821690612a2591612bd2565b612a3a610100870160ff600884901c16612bdf565b8060101c63ffffffff1661012087015260301c63ffffffff166101408601526101608501526101808401526101a08301520390f35b90600182811c92168015612a9f575b6020831014612a8957565b634e487b7160e01b600052602260045260246000fd5b91607f1691612a7e565b6101c081019081106001600160401b03821117610c5457604052565b90601f801991011681019081106001600160401b03821117610c5457604052565b9060405191826000825492612afa84612a6f565b8084529360018116908115612b685750600114612b21575b50612b1f92500383612ac5565b565b90506000929192526020600020906000915b818310612b4c575050906020612b1f9282010138612b12565b6020919350806001915483858901015201910190918492612b33565b905060209250612b1f94915060ff191682840152151560051b82010138612b12565b60005b838110612b9d5750506000910152565b8181015183820152602001612b8d565b90602091612bc681518092818552858086019101612b8a565b601f01601f1916010190565b9060028210156105655752565b9060038210156105655752565b6040906003190112610188576004356001600160a01b0381168103610188579060243590565b906020808351928381520192019060005b818110612c305750505090565b8251845260209384019390920191600101612c23565b6001600160401b038111610c5457601f01601f191660200190565b81601f8201121561018857803590612c7882612c46565b92612c866040519485612ac5565b8284526020838301011161018857816000926020809301838601378301015290565b9181601f84011215610188578235916001600160401b038311610188576020808501948460051b01011161018857565b906101a0612d30612d1e612d0c612cfa86516101c087526101c0870190612bad565b60208701518682036020880152612bad565b60408601518582036040870152612bad565b60608501518482036060860152612bad565b926080810151608084015260a081015160a084015260c081015160c0840152612d6160e082015160e0850190612bd2565b612d75610100820151610100850190612bdf565b63ffffffff6101208201511661012084015263ffffffff6101408201511661014084015261016081015161016084015260018060a01b03610180820151166101808401528160018060a01b039101511691015290565b63ffffffff60649116029063ffffffff8216918203610d9f57565b9063ffffffff16908115612dfe5763ffffffff160490565b634e487b7160e01b600052601260045260246000fd5b3d15612e3f573d90612e2582612c46565b91612e336040519384612ac5565b82523d6000602084013e565b606090565b6000198114610d9f5760010190565b6001600160401b038111610c545760051b60200190565b90612e7482612e53565b612e816040519182612ac5565b8281528092612e92601f1991612e53565b0190602036910137565b8051821015612eb05760209160051b010190565b634e487b7160e01b600052603260045260246000fd5b60405190612ed5604083612ac5565b60048252634652454560e01b6020830152565b60405190612ef7604083612ac5565b600382526205649560ec1b6020830152565b60405190612f18604083612ac5565b60078252662922a3aaa620a960c91b6020830152565b9190923315610dfa57821580156133b3575b61124a576000838152600660205260409020600a01546001600160a01b031633036133a2578260005260066020526040600020938360005260096020526040600020946003821015610565578115613237576007015460ff1660028110156105655760010361322657821561321557600181036130e15750835460ff811661309c5760081c60ff168061308e575b61307d57612fe8600391612fe0612f09565b908486613742565b845460ff1916600190811786558501839055930180546001600160a01b0319166001600160a01b03851617905560035461302190612e44565b6003556040519260018060a01b0316835260208301526060604083015260076060830152662922a3aaa620a960c91b60808301527f799e64d0734224bf918f4f5bed2dbb902cd2310087d671b19e5e98c89d60310f60a03393a3565b631ccc1f4760e01b60005260046000fd5b506002840154821015612fce565b60405162461bcd60e51b815260206004820152601f60248201527f526567756c6172207469636b65747320616c72656164792063726561746564006044820152606490fd5b6002146130ef575b50505050565b835460ff8160081c166131d05760ff16806131c2575b6131b157613117600491612fe0612ee8565b845461ff00191661010017855560028501839055930180546001600160a01b0319166001600160a01b03851617905560035461315290612e44565b6003556040519260018060a01b03168352602083015260606040830152600360608301526205649560ec1b60808301527f799e64d0734224bf918f4f5bed2dbb902cd2310087d671b19e5e98c89d60310f60a03393a3388080806130e9565b6301ab11a360e71b60005260046000fd5b506001840154821115613105565b60405162461bcd60e51b815260206004820152601b60248201527f564950207469636b65747320616c7265616479206372656174656400000000006044820152606490fd5b63ed09827f60e01b60005260046000fd5b636e34583d60e01b60005260046000fd5b600701549194505060ff169050600281101561056557611d3857613259612ec6565b6000908282526006602052604082209361327285612ae6565b91604051926116ff92838501938585106001600160401b0386111761338e578594926132b96132d595936132c7936138628939308652608060208701526080860190612bad565b908482036040860152612bad565b916060818403910152612bad565b039082f08015613381576009840180546001600160a01b0319166001600160a01b039283169081179091556008808601849055600a90950154909116825260209384526040822091839052925260035461332e90612e44565b600355604051918252600060208301526060604083015260046060830152634652454560e01b60808301527f799e64d0734224bf918f4f5bed2dbb902cd2310087d671b19e5e98c89d60310f60a03393a3565b50604051903d90823e3d90fd5b634e487b7160e01b87526041600452602487fd5b63093457ab60e01b60005260046000fd5b506002548311612f40565b91908201809211610d9f57565b156133d257565b60405162461bcd60e51b815260206004820152601760248201527f5469636b657420636f6e7472616374206e6f74207365740000000000000000006044820152606490fd5b9190811015612eb05760051b0190565b356001600160a01b03811681036101885790565b63ffffffff60019116019063ffffffff8211610d9f57565b806000526006602052604060002090600582015442118015906134d8575b6134cb5760018060a01b03600a8301541660005260086020526040600020906000526020526040600020549081156134cb576134bf600763ffffffff92015482611393818360301c16612dcb565b1691603c831015929190565b5050600090600090600090565b5080600052600b60205260ff60406000205416613471565b906040516134fd81612aa9565b809261350881612ae6565b825261351660018201612ae6565b602083015261352760028201612ae6565b604083015261353860038201612ae6565b606083015260048101546080830152600581015460a0830152600681015460c083015260078101549060ff821660028110156105655760e084015260ff8260081c166003811015610565576101a09263ffffffff91610100860152818160101c1661012086015260301c16610140840152600881015461016084015260018060a01b03600982015416610180840152600a60018060a01b0391015416910152565b60005b8281106135e857505050565b6060828201526020016135dc565b601f821161360357505050565b6000526020600020906020601f840160051c8301931061363e575b601f0160051c01905b818110613632575050565b60008155600101613627565b909150819061361e565b9060028110156105655760ff80198354169116179055565b91909182811461373d576136748354612a6f565b6001600160401b038111610c5457613696816136908454612a6f565b846135f6565b600093601f82116001146136d7576136c892939482916000926136cc5750508160011b916000199060031b1c19161790565b9055565b015490503880610713565b845260208085208386529085209094601f198316815b8181106137255750958360019596971061370c575b505050811b019055565b015460001960f88460031b161c19169055388080613702565b9192600180602092868b0154815501940192016136ed565b509050565b9092916000928284526006602052604084209161375e83612ae6565b91604051926116ff92838501938585106001600160401b03861117610bc0578594926132b96137a595936132c7936138628939308652608060208701526080860190612bad565b039084f080156137f5576009820180546001600160a01b0319166001600160a01b03928316908117909155600880840196909655600a909201541683526020938452604083209190925290915290565b6040513d85823e3d90fd5b90613826575080511561381557805190602001fd5b63d6bda27560e01b60005260046000fd5b81511580613858575b613837575090565b639996b31560e01b60009081526001600160a01b0391909116600452602490fd5b50803b1561382f56fe608060405234610505576116ff803803806100198161050a565b9283398101906080818303126105055780516001600160a01b03811691908290036105055760208101516001600160401b038111610505578361005d91830161052f565b60408201519091906001600160401b038111610505578461007f91830161052f565b60608201519094906001600160401b0381116105055761009f920161052f565b83519092906001600160401b03811161031957600054600181811c911680156104fb575b60208210146102f957601f8111610497575b50602094601f821160011461043157948192939495600092610426575b50508160011b916000199060031b1c1916176000555b82516001600160401b03811161031957600154600181811c9116801561041c575b60208210146102f957601f81116103b7575b506020601f82116001146103505781929394600092610345575b50508160011b916000199060031b1c1916176001555b801561032f57600780546001600160a01b0319811683179091556001600160a01b03167f8be0079c531659141344cd1fd0a4f28419497f9722a3daafe3b4186f6b6457e0600080a380516001600160401b03811161031957600954600181811c9116801561030f575b60208210146102f957601f8111610294575b50602091601f821160011461023057918192600092610225575b50508160011b916000199060031b1c1916176009555b604051611164908161059b8239f35b015190503880610200565b601f198216926009600052806000209160005b85811061027c57508360019510610263575b505050811b01600955610216565b015160001960f88460031b161c19169055388080610255565b91926020600181928685015181550194019201610243565b60096000527f6e1540171b6c0c960b71a7020d9f60077f6af931a8bbf590da0223dacf75c7af601f830160051c810191602084106102ef575b601f0160051c01905b8181106102e357506101e6565b600081556001016102d6565b90915081906102cd565b634e487b7160e01b600052602260045260246000fd5b90607f16906101d4565b634e487b7160e01b600052604160045260246000fd5b631e4fbdf760e01b600052600060045260246000fd5b015190503880610155565b601f198216906001600052806000209160005b81811061039f57509583600195969710610386575b505050811b0160015561016b565b015160001960f88460031b161c19169055388080610378565b9192602060018192868b015181550194019201610363565b60016000527fb10e2d527612073b26eecdfd717e6a320cf44b4afac2b0732d9fcbe2b7fa0cf6601f830160051c81019160208410610412575b601f0160051c01905b818110610406575061013b565b600081556001016103f9565b90915081906103f0565b90607f1690610129565b0151905038806100f2565b601f1982169560008052806000209160005b88811061047f57508360019596979810610466575b505050811b01600055610108565b015160001960f88460031b161c19169055388080610458565b91926020600181928685015181550194019201610443565b600080527f290decd9548b62a8d60345a988386fc84ba6bc95484008f6362f93160ef3e563601f830160051c810191602084106104f1575b601f0160051c01905b8181106104e557506100d5565b600081556001016104d8565b90915081906104cf565b90607f16906100c3565b600080fd5b6040519190601f01601f191682016001600160401b0381118382101761031957604052565b81601f82011215610505578051906001600160401b0382116103195761055e601f8301601f191660200161050a565b92828452602083830101116105055760005b82811061058557505060206000918301015290565b8060208092840101518282870101520161057056fe608080604052600436101561001357600080fd5b60003560e01c90816301ffc9a714610ba15750806306fdde0314610afc578063081812fc14610abe578063095ea7b3146109cf57806323b872dd146109b857806340d097c31461053c57806342842e0e1461050c5780636352211e146104dc57806370a0823114610486578063715018a6146104295780638da5cb5b1461040057806395d89b4114610333578063a22cb46514610292578063b88d4fde146101fb578063c87b56dd146101c4578063e985e9c5146101695763f2fde38b146100da57600080fd5b34610164576020366003190112610164576100f3610c65565b6100fb610f10565b6001600160a01b0316801561014e57600780546001600160a01b0319811683179091556001600160a01b03167f8be0079c531659141344cd1fd0a4f28419497f9722a3daafe3b4186f6b6457e0600080a3005b631e4fbdf760e01b600052600060045260246000fd5b600080fd5b3461016457604036600319011261016457610182610c65565b61018a610c7b565b9060018060a01b0316600052600560205260406000209060018060a01b0316600052602052602060ff604060002054166040519015158152f35b34610164576020366003190112610164576101f76101e3600435611062565b604051918291602083526020830190610c26565b0390f35b3461016457608036600319011261016457610214610c65565b61021c610c7b565b906044356064359267ffffffffffffffff841161016457366023850112156101645783600401359261024d84610ced565b9361025b6040519586610ccb565b80855236602482880101116101645760208160009260246102909901838901378601015261028a838383610d43565b33610f39565b005b34610164576040366003190112610164576102ab610c65565b60243590811515809203610164576001600160a01b031690811561031e57336000526005602052604060002082600052602052604060002060ff1981541660ff83161790556040519081527f17307eab39ab6107e8899845ad3d59bd9653f200f220920489ca2b5937696c3160203392a3005b50630b61174360e31b60005260045260246000fd5b3461016457600036600319011261016457604051600060015461035581610d09565b80845290600181169081156103dc575060011461037d575b6101f7836101e381850382610ccb565b600160009081527fb10e2d527612073b26eecdfd717e6a320cf44b4afac2b0732d9fcbe2b7fa0cf6939250905b8082106103c2575090915081016020016101e361036d565b9192600181602092548385880101520191019092916103aa565b60ff191660208086019190915291151560051b840190910191506101e3905061036d565b34610164576000366003190112610164576007546040516001600160a01b039091168152602090f35b3461016457600036600319011261016457610442610f10565b600780546001600160a01b031981169091556000906001600160a01b03167f8be0079c531659141344cd1fd0a4f28419497f9722a3daafe3b4186f6b6457e08280a3005b34610164576020366003190112610164576001600160a01b036104a7610c65565b1680156104c65760005260036020526020604060002054604051908152f35b6322718ad960e21b600052600060045260246000fd5b346101645760203660031901126101645760206104fa600435610ed9565b6040516001600160a01b039091168152f35b346101645761029061051d36610c91565b906040519261052d602085610ccb565b6000845261028a838383610d43565b3461016457602036600319011261016457610555610c65565b61055d610f10565b6008549060001982146109a257600182016008556020906040516105818382610ccb565b600081526001600160a01b03821691821561098c5760008581526002855260018060a01b036040822054168685827fddf252ad1be2c89b69c2b068fc378daa952ba7f163c4a11628f55a4df523b3ef8115159586610958575b83815260038b5260408082208054600101905585825260028c52812080546001600160a01b0319168517905580a450610942573b610822575b5050604051916000836009549161062983610d09565b92838352856001821691826000146108055750506001146107c6575b61065192500384610ccb565b80600052600682526040600020835167ffffffffffffffff81116107b0576106798254610d09565b601f811161076a575b508394601f82116001146106e4577ff8e1a15aba9398e019f0b49df1a4fde98ee17ae345cb5f6b5e2c27f5033e8ce795600091836106d9575b50508160011b916000199060031b1c19161790555b604051908152a1005b0151905086806106bb565b601f1982169583600052856000209160005b8881106107535750908392916001947ff8e1a15aba9398e019f0b49df1a4fde98ee17ae345cb5f6b5e2c27f5033e8ce7991061073a575b505050811b0190556106d0565b015160001960f88460031b161c1916905586808061072d565b9192876001819286850151815501940192016106f6565b8260005284600020601f830160051c8101918684106107a6575b601f0160051c01905b81811061079a5750610682565b6000815560010161078d565b9091508190610784565b634e487b7160e01b600052604160045260246000fd5b505060096000528383806000206000905b8482106107ec57506106519350820101610645565b6001919350805483858a010152019101849086926107d7565b60ff19168482015261065194151560051b84010191506106459050565b8261085f9160409593955180938192630a85bd0160e11b835233600484015260006024840152866044840152608060648401526084830190610c26565b03816000885af180916000916108fd575b50906108c75750503d156108c0573d61088881610ced565b906108966040519283610ccb565b81523d60008383013e5b805191826108bd5783633250574960e11b60005260045260246000fd5b01fd5b60606108a0565b9092906001600160e01b03191663757a42ff60e11b016108e957508280610613565b633250574960e11b60005260045260246000fd5b8481813d831161093b575b6109128183610ccb565b810103126109375751906001600160e01b031982168203610934575085610870565b80fd5b5080fd5b503d610908565b6339e3563760e11b600052600060045260246000fd5b600085815260046020526040902080546001600160a01b031916905582815260038b526040812080546000190190556105da565b633250574960e11b600052600060045260246000fd5b634e487b7160e01b600052601160045260246000fd5b34610164576102906109c936610c91565b91610d43565b34610164576040366003190112610164576109e8610c65565b6024356109f481610ed9565b33151580610aab575b80610a7d575b610a685781906001600160a01b0384811691167f8c5be1e5ebec7d5bd14f71427d1e84f3dd0314c0f7b2291e5b200ac8c7c3b925600080a4600090815260046020526040902080546001600160a01b0319166001600160a01b03909216919091179055005b63a9fbf51f60e01b6000523360045260246000fd5b506001600160a01b038116600090815260056020908152604080832033845290915290205460ff1615610a03565b506001600160a01b0381163314156109fd565b3461016457602036600319011261016457600435610adb81610ed9565b506000526004602052602060018060a01b0360406000205416604051908152f35b346101645760003660031901126101645760405160008054610b1d81610d09565b80845290600181169081156103dc5750600114610b44576101f7836101e381850382610ccb565b60008080527f290decd9548b62a8d60345a988386fc84ba6bc95484008f6362f93160ef3e563939250905b808210610b87575090915081016020016101e361036d565b919260018160209254838588010152019101909291610b6f565b34610164576020366003190112610164576004359063ffffffff60e01b821680920361016457602091632483248360e11b8114908115610be3575b5015158152f35b6380ac58cd60e01b811491508115610c15575b8115610c04575b5083610bdc565b6301ffc9a760e01b14905083610bfd565b635b5e139f60e01b81149150610bf6565b919082518082526020808301940160005b828110610c55575050600081602094950152601f8019910116010190565b8181015186820152602001610c37565b600435906001600160a01b038216820361016457565b602435906001600160a01b038216820361016457565b6060906003190112610164576004356001600160a01b038116810361016457906024356001600160a01b0381168103610164579060443590565b90601f8019910116810190811067ffffffffffffffff8211176107b057604052565b67ffffffffffffffff81116107b057601f01601f191660200190565b90600182811c92168015610d39575b6020831014610d2357565b634e487b7160e01b600052602260045260246000fd5b91607f1691610d18565b6001600160a01b039091169190821561098c576000828152600260205260408120546001600160a01b0316938391859033151580610e41575b507fddf252ad1be2c89b69c2b068fc378daa952ba7f163c4a11628f55a4df523b3ef9082610e0c575b83815260036020526040812060018154019055848152600260205260408120846bffffffffffffffffffffffff60a01b82541617905580a46001600160a01b0316808303610df257505050565b6364283d7b60e01b60005260045260245260445260646000fd5b600085815260046020526040902080546001600160a01b03191690558281526003602052604081208054600019019055610da5565b915091925080610e8a575b15610e5b579084849238610d7c565b839085610e7457602491637e27328960e01b8252600452fd5b60449163177e802f60e01b825233600452602452fd5b503385148015610eb8575b80610e4c5750838152600460205260408120546001600160a01b03163314610e4c565b5084815260056020908152604080832033845290915281205460ff16610e95565b6000818152600260205260409020546001600160a01b0316908115610efc575090565b637e27328960e01b60005260045260246000fd5b6007546001600160a01b03163303610f2457565b63118cdaa760e01b6000523360045260246000fd5b823b610f47575b5050505050565b604051630a85bd0160e11b81526001600160a01b039182166004820152918116602483015260448201939093526080606482015291169160209082908190610f93906084830190610c26565b03816000865af1809160009161101f575b5090610ffd57503d15610ff6573d610fbb81610ced565b90610fc96040519283610ccb565b81523d6000602083013e5b80519081610ff15782633250574960e11b60005260045260246000fd5b602001fd5b6060610fd4565b6001600160e01b03191663757a42ff60e11b016108e957503880808080610f40565b6020813d60201161105a575b8161103860209383610ccb565b810103126109375751906001600160e01b031982168203610934575038610fa4565b3d915061102b565b61106b81610ed9565b50600052600660205260406000206040519081600082549261108c84610d09565b808452936001811690811561110c57506001146110c5575b506110b192500382610ccb565b60006040516110c1602082610ccb565b5290565b90506000929192526020600020906000915b8183106110f05750509060206110b192820101386110a4565b60209193508060019154838588010152019101909183926110d7565b9050602092506110b194915060ff191682840152151560051b820101386110a456fea2646970667358221220208a92b9ba019fcc22b6ac55eb89e80e26c334c8f9d5a88e0ba824e85f26831864736f6c634300081c0033a2646970667358221220630c89d0581144d5a12c3506a5e37e974b561f7df5f6f8ebfd9ac48f63d7b70b64736f6c634300081c0033",
  "linkReferences": {},
  "deployedLinkReferences": {}
}